{
  "contractName": "GroceryList",
  "abi": [
    {
      "constant": true,
      "inputs": [
        {
          "name": "",
          "type": "uint256"
        }
      ],
      "name": "groceries",
      "outputs": [
        {
          "name": "exists",
          "type": "bool"
        },
        {
          "name": "name",
          "type": "string"
        },
        {
          "name": "quantity",
          "type": "uint256"
        }
      ],
      "payable": false,
      "stateMutability": "view",
      "type": "function"
    },
    {
      "constant": true,
      "inputs": [
        {
          "name": "",
          "type": "uint256"
        }
      ],
      "name": "idToIndex",
      "outputs": [
        {
          "name": "",
          "type": "uint256"
        }
      ],
      "payable": false,
      "stateMutability": "view",
      "type": "function"
    },
    {
      "constant": true,
      "inputs": [
        {
          "name": "",
          "type": "uint256"
        }
      ],
      "name": "ids",
      "outputs": [
        {
          "name": "",
          "type": "uint256"
        }
      ],
      "payable": false,
      "stateMutability": "view",
      "type": "function"
    },
    {
      "anonymous": false,
      "inputs": [
        {
          "indexed": false,
          "name": "_id",
          "type": "uint256"
        },
        {
          "indexed": false,
          "name": "_name",
          "type": "string"
        },
        {
          "indexed": false,
          "name": "_quantity",
          "type": "uint256"
        }
      ],
      "name": "ItemAdded",
      "type": "event"
    },
    {
      "anonymous": false,
      "inputs": [
        {
          "indexed": false,
          "name": "_id",
          "type": "uint256"
        }
      ],
      "name": "ItemRemoved",
      "type": "event"
    },
    {
      "anonymous": false,
      "inputs": [
        {
          "indexed": false,
          "name": "_id",
          "type": "uint256"
        },
        {
          "indexed": false,
          "name": "_quantity",
          "type": "uint256"
        }
      ],
      "name": "ItemQuantityChanged",
      "type": "event"
    },
    {
      "constant": false,
      "inputs": [
        {
          "name": "_name",
          "type": "string"
        },
        {
          "name": "_quantity",
          "type": "uint256"
        }
      ],
      "name": "addItem",
      "outputs": [
        {
          "name": "",
          "type": "uint256"
        }
      ],
      "payable": false,
      "stateMutability": "nonpayable",
      "type": "function"
    },
    {
      "constant": true,
      "inputs": [
        {
          "name": "_id",
          "type": "uint256"
        }
      ],
      "name": "getItem",
      "outputs": [
        {
          "name": "",
          "type": "string"
        },
        {
          "name": "",
          "type": "uint256"
        }
      ],
      "payable": false,
      "stateMutability": "view",
      "type": "function"
    },
    {
      "constant": true,
      "inputs": [],
      "name": "getAllIds",
      "outputs": [
        {
          "name": "",
          "type": "uint256[]"
        }
      ],
      "payable": false,
      "stateMutability": "view",
      "type": "function"
    },
    {
      "constant": false,
      "inputs": [
        {
          "name": "_id",
          "type": "uint256"
        }
      ],
      "name": "removeItem",
      "outputs": [],
      "payable": false,
      "stateMutability": "nonpayable",
      "type": "function"
    },
    {
      "constant": false,
      "inputs": [
        {
          "name": "_id",
          "type": "uint256"
        }
      ],
      "name": "incrementItem",
      "outputs": [],
      "payable": false,
      "stateMutability": "nonpayable",
      "type": "function"
    },
    {
      "constant": false,
      "inputs": [
        {
          "name": "_id",
          "type": "uint256"
        }
      ],
      "name": "DecrementItem",
      "outputs": [],
      "payable": false,
      "stateMutability": "nonpayable",
      "type": "function"
    }
  ],
  "bytecode": "0x608060405234801561001057600080fd5b50610f0a806100206000396000f3fe608060405260043610610093576000357c010000000000000000000000000000000000000000000000000000000090048063042d192714610098578063130ba11a1461015e5780633129e773146101995780633df6db721461025457806362d6bbdf146102a35780637132917114610389578063aaa44e5c146103c4578063d22fbcd714610430578063fac333ac1461046b575b600080fd5b3480156100a457600080fd5b506100d1600480360360208110156100bb57600080fd5b81019080803590602001909291905050506104ba565b604051808415151515815260200180602001838152602001828103825284818151815260200191508051906020019080838360005b83811015610121578082015181840152602081019050610106565b50505050905090810190601f16801561014e5780820380516001836020036101000a031916815260200191505b5094505050505060405180910390f35b34801561016a57600080fd5b506101976004803603602081101561018157600080fd5b8101908080359060200190929190505050610589565b005b3480156101a557600080fd5b506101d2600480360360208110156101bc57600080fd5b81019080803590602001909291905050506106a2565b6040518080602001838152602001828103825284818151815260200191508051906020019080838360005b838110156102185780820151818401526020810190506101fd565b50505050905090810190601f1680156102455780820380516001836020036101000a031916815260200191505b50935050505060405180910390f35b34801561026057600080fd5b5061028d6004803603602081101561027757600080fd5b8101908080359060200190929190505050610812565b6040518082815260200191505060405180910390f35b3480156102af57600080fd5b50610373600480360360408110156102c657600080fd5b81019080803590602001906401000000008111156102e357600080fd5b8201836020820111156102f557600080fd5b8035906020019184600183028401116401000000008311171561031757600080fd5b91908080601f016020809104026020016040519081016040528093929190818152602001838380828437600081840152601f19601f8201169050808301925050505050505091929192908035906020019092919050505061082a565b6040518082815260200191505060405180910390f35b34801561039557600080fd5b506103c2600480360360208110156103ac57600080fd5b8101908080359060200190929190505050610a49565b005b3480156103d057600080fd5b506103d9610bf9565b6040518080602001828103825283818151815260200191508051906020019060200280838360005b8381101561041c578082015181840152602081019050610401565b505050509050019250505060405180910390f35b34801561043c57600080fd5b506104696004803603602081101561045357600080fd5b8101908080359060200190929190505050610c51565b005b34801561047757600080fd5b506104a46004803603602081101561048e57600080fd5b8101908080359060200190929190505050610d69565b6040518082815260200191505060405180910390f35b60026020528060005260406000206000915090508060000160009054906101000a900460ff1690806001018054600181600116156101000203166002900480601f0160208091040260200160405190810160405280929190818152602001828054600181600116156101000203166002900480156105795780601f1061054e57610100808354040283529160200191610579565b820191906000526020600020905b81548152906001019060200180831161055c57829003601f168201915b5050505050908060020154905083565b806002600082815260200190815260200160002060000160009054906101000a900460ff161515610622576040517f08c379a00000000000000000000000000000000000000000000000000000000081526004018080602001828103825260138152602001807f4974656d20646f6573206e6f742065786973740000000000000000000000000081525060200191505060405180910390fd5b6002600083815260200190815260200160002060020160008154809291906001900391905055507f8587af54375c3313cbb001d3e8461e1d57fef98daae216d7628ff730d0550061826002600085815260200190815260200160002060020154604051808381526020018281526020019250505060405180910390a15050565b60606000826002600082815260200190815260200160002060000160009054906101000a900460ff16151561073f576040517f08c379a00000000000000000000000000000000000000000000000000000000081526004018080602001828103825260138152602001807f4974656d20646f6573206e6f742065786973740000000000000000000000000081525060200191505060405180910390fd5b600260008581526020019081526020016000206001016002600086815260200190815260200160002060020154818054600181600116156101000203166002900480601f0160208091040260200160405190810160405280929190818152602001828054600181600116156101000203166002900480156108015780601f106107d657610100808354040283529160200191610801565b820191906000526020600020905b8154815290600101906020018083116107e457829003601f168201915b505050505091509250925050915091565b60016020528060005260406000206000915090505481565b60008061083684610d8c565b90506002600082815260200190815260200160002060000160009054906101000a900460ff161515156108d1576040517f08c379a00000000000000000000000000000000000000000000000000000000081526004018080602001828103825260148152602001807f4974656d20616c7265616479206578697374732100000000000000000000000081525060200191505060405180910390fd5b606060405190810160405280600115158152602001858152602001848152506002600083815260200190815260200160002060008201518160000160006101000a81548160ff021916908315150217905550602082015181600101908051906020019061093f929190610e0d565b5060408201518160020155905050600081908060018154018082558091505090600182039060005260206000200160009091929091909150555060008054905060016000838152602001908152602001600020819055507f0444434676a57f70f8479401c50fb4add3e31052f88f4b35e155b7759e5968e58185856040518084815260200180602001838152602001828103825284818151815260200191508051906020019080838360005b83811015610a065780820151818401526020810190506109eb565b50505050905090810190601f168015610a335780820380516001836020036101000a031916815260200191505b5094505050505060405180910390a15092915050565b806002600082815260200190815260200160002060000160009054906101000a900460ff161515610ae2576040517f08c379a00000000000000000000000000000000000000000000000000000000081526004018080602001828103825260138152602001807f4974656d20646f6573206e6f742065786973740000000000000000000000000081525060200191505060405180910390fd5b60006002600084815260200190815260200160002060000160006101000a81548160ff02191690831515021790555060006001600084815260200190815260200160002054905060016000805490501115610ba7576000600160008054905003815481101515610b4e57fe5b9060005260206000200154600082815481101515610b6857fe5b906000526020600020018190555080600160008084815481101515610b8957fe5b90600052602060002001548152602001908152602001600020819055505b6000805480919060019003610bbc9190610e8d565b507fa54eda4149a0fb9258911733973ecf1f6762357ed371fc6d1e63123bbce23bed836040518082815260200191505060405180910390a1505050565b60606000805480602002602001604051908101604052809291908181526020018280548015610c4757602002820191906000526020600020905b815481526020019060010190808311610c33575b5050505050905090565b806002600082815260200190815260200160002060000160009054906101000a900460ff161515610cea576040517f08c379a00000000000000000000000000000000000000000000000000000000081526004018080602001828103825260138152602001807f4974656d20646f6573206e6f742065786973740000000000000000000000000081525060200191505060405180910390fd5b60026000838152602001908152602001600020600201600081548092919060010191905055507f8587af54375c3313cbb001d3e8461e1d57fef98daae216d7628ff730d0550061826002600085815260200190815260200160002060020154604051808381526020018281526020019250505060405180910390a15050565b600081815481101515610d7857fe5b906000526020600020016000915090505481565b6000816040516020018082805190602001908083835b602083101515610dc75780518252602082019150602081019050602083039250610da2565b6001836020036101000a03801982511681845116808217855250505050505090500191505060405160208183030381529060405280519060200120600190049050919050565b828054600181600116156101000203166002900490600052602060002090601f016020900481019282601f10610e4e57805160ff1916838001178555610e7c565b82800160010185558215610e7c579182015b82811115610e7b578251825591602001919060010190610e60565b5b509050610e899190610eb9565b5090565b815481835581811115610eb457818360005260206000209182019101610eb39190610eb9565b5b505050565b610edb91905b80821115610ed7576000816000905550600101610ebf565b5090565b9056fea165627a7a7230582075f0452308d8f10699d144aab35318fa9c22494246aba088fb0b807a5817308b0029",
  "source": "pragma solidity >=0.5.0 <=0.6.0;\n\ncontract GroceryList {\n    struct Item {\n        bool exists;\n        string name;\n        uint256 quantity;\n    }\n\n    event ItemAdded(uint256 _id, string _name, uint256 _quantity);\n    event ItemRemoved(uint256 _id);\n    event ItemQuantityChanged(uint256 _id, uint256 _quantity);\n\n    uint256[] public ids;\n    mapping(uint256 => uint256) public idToIndex;\n    mapping(uint256 => Item) public groceries;\n\n    modifier itemExists(uint256 _id) {\n        require(groceries[_id].exists, \"Item does not exist\");\n        _;\n    }\n\n    function _generateNewId(string memory _str)\n        internal\n        pure\n        returns (uint256)\n    {\n        return uint256(keccak256(abi.encodePacked(_str)));\n    }\n\n    function addItem(string memory _name, uint256 _quantity)\n        public\n        returns (uint256)\n    {\n        uint256 id = _generateNewId(_name);\n        require(!groceries[id].exists, \"Item already exists!\");\n        groceries[id] = Item(true, _name, _quantity);\n        ids.push(id);\n        idToIndex[id] = ids.length;\n        emit ItemAdded(id, _name, _quantity);\n    }\n\n    function getItem(uint256 _id)\n        public\n        view\n        itemExists(_id)\n        returns (string memory, uint256)\n    {\n        return (groceries[_id].name, groceries[_id].quantity);\n    }\n\n    function getAllIds() public view returns (uint256[] memory) {\n        return ids;\n    }\n\n    function removeItem(uint256 _id) public itemExists(_id) {\n        groceries[_id].exists = false;\n        uint256 index = idToIndex[_id];\n        if (ids.length > 1) {\n            ids[index] = ids[ids.length - 1];\n            idToIndex[ids[index]] = index;\n        }\n        ids.length--;\n        emit ItemRemoved(_id);\n    }\n\n    function incrementItem(uint256 _id) public itemExists(_id) {\n        groceries[_id].quantity++;\n        emit ItemQuantityChanged(_id, groceries[_id].quantity);\n    }\n\n    function DecrementItem(uint256 _id) public itemExists(_id) {\n        groceries[_id].quantity--;\n        emit ItemQuantityChanged(_id, groceries[_id].quantity);\n    }\n}\n",
  "sourcePath": "/Users/matan/dev/portfolio/gl/backend/contracts/ShoppingList.sol",
  "compiler": {
    "name": "solc",
    "version": "0.5.1+commit.c8a2cb62.Emscripten.clang"
  },
  "schemaVersion": "3.0.23",
  "updatedAt": "2020-03-10T11:18:03.452Z",
  "networkType": "ethereum",
  "devdoc": {
    "methods": {}
  },
  "userdoc": {
    "methods": {}
  }
}