{
  "contractName": "GroceryList",
  "abi": [
    {
      "constant": true,
      "inputs": [
        {
          "name": "",
          "type": "uint256"
        }
      ],
      "name": "groceries",
      "outputs": [
        {
          "name": "exists",
          "type": "bool"
        },
        {
          "name": "name",
          "type": "string"
        },
        {
          "name": "quantity",
          "type": "uint256"
        }
      ],
      "payable": false,
      "stateMutability": "view",
      "type": "function"
    },
    {
      "constant": true,
      "inputs": [
        {
          "name": "",
          "type": "uint256"
        }
      ],
      "name": "idToIndex",
      "outputs": [
        {
          "name": "",
          "type": "uint256"
        }
      ],
      "payable": false,
      "stateMutability": "view",
      "type": "function"
    },
    {
      "constant": true,
      "inputs": [
        {
          "name": "",
          "type": "uint256"
        }
      ],
      "name": "ids",
      "outputs": [
        {
          "name": "",
          "type": "uint256"
        }
      ],
      "payable": false,
      "stateMutability": "view",
      "type": "function"
    },
    {
      "anonymous": false,
      "inputs": [
        {
          "indexed": false,
          "name": "_id",
          "type": "uint256"
        },
        {
          "indexed": false,
          "name": "_name",
          "type": "string"
        },
        {
          "indexed": false,
          "name": "_quantity",
          "type": "uint256"
        }
      ],
      "name": "ItemAdded",
      "type": "event"
    },
    {
      "anonymous": false,
      "inputs": [
        {
          "indexed": false,
          "name": "_id",
          "type": "uint256"
        }
      ],
      "name": "ItemRemoved",
      "type": "event"
    },
    {
      "anonymous": false,
      "inputs": [
        {
          "indexed": false,
          "name": "_id",
          "type": "uint256"
        },
        {
          "indexed": false,
          "name": "_quantity",
          "type": "uint256"
        }
      ],
      "name": "ItemQuantityChanged",
      "type": "event"
    },
    {
      "constant": false,
      "inputs": [
        {
          "name": "_name",
          "type": "string"
        },
        {
          "name": "_quantity",
          "type": "uint256"
        }
      ],
      "name": "addItem",
      "outputs": [
        {
          "name": "",
          "type": "uint256"
        }
      ],
      "payable": false,
      "stateMutability": "nonpayable",
      "type": "function"
    },
    {
      "constant": true,
      "inputs": [
        {
          "name": "_id",
          "type": "uint256"
        }
      ],
      "name": "getItem",
      "outputs": [
        {
          "name": "",
          "type": "string"
        },
        {
          "name": "",
          "type": "uint256"
        }
      ],
      "payable": false,
      "stateMutability": "view",
      "type": "function"
    },
    {
      "constant": true,
      "inputs": [],
      "name": "getAllIds",
      "outputs": [
        {
          "name": "",
          "type": "uint256[]"
        }
      ],
      "payable": false,
      "stateMutability": "view",
      "type": "function"
    },
    {
      "constant": false,
      "inputs": [
        {
          "name": "_id",
          "type": "uint256"
        }
      ],
      "name": "removeItem",
      "outputs": [],
      "payable": false,
      "stateMutability": "nonpayable",
      "type": "function"
    },
    {
      "constant": false,
      "inputs": [
        {
          "name": "_id",
          "type": "uint256"
        },
        {
          "name": "_quantity",
          "type": "uint256"
        }
      ],
      "name": "changeQuantity",
      "outputs": [],
      "payable": false,
      "stateMutability": "nonpayable",
      "type": "function"
    }
  ],
  "bytecode": "0x608060405234801561001057600080fd5b50610d95806100206000396000f3fe608060405260043610610088576000357c010000000000000000000000000000000000000000000000000000000090048063042d19271461008d5780633129e773146101535780633b60b6591461020e5780633df6db721461025357806362d6bbdf146102a25780637132917114610388578063aaa44e5c146103c3578063fac333ac1461042f575b600080fd5b34801561009957600080fd5b506100c6600480360360208110156100b057600080fd5b810190808035906020019092919050505061047e565b604051808415151515815260200180602001838152602001828103825284818151815260200191508051906020019080838360005b838110156101165780820151818401526020810190506100fb565b50505050905090810190601f1680156101435780820380516001836020036101000a031916815260200191505b5094505050505060405180910390f35b34801561015f57600080fd5b5061018c6004803603602081101561017657600080fd5b810190808035906020019092919050505061054d565b6040518080602001838152602001828103825284818151815260200191508051906020019080838360005b838110156101d25780820151818401526020810190506101b7565b50505050905090810190601f1680156101ff5780820380516001836020036101000a031916815260200191505b50935050505060405180910390f35b34801561021a57600080fd5b506102516004803603604081101561023157600080fd5b8101908080359060200190929190803590602001909291905050506106bd565b005b34801561025f57600080fd5b5061028c6004803603602081101561027657600080fd5b81019080803590602001909291905050506107b5565b6040518082815260200191505060405180910390f35b3480156102ae57600080fd5b50610372600480360360408110156102c557600080fd5b81019080803590602001906401000000008111156102e257600080fd5b8201836020820111156102f457600080fd5b8035906020019184600183028401116401000000008311171561031657600080fd5b91908080601f016020809104026020016040519081016040528093929190818152602001838380828437600081840152601f19601f820116905080830192505050505050509192919290803590602001909291905050506107cd565b6040518082815260200191505060405180910390f35b34801561039457600080fd5b506103c1600480360360208110156103ab57600080fd5b81019080803590602001909291905050506109ec565b005b3480156103cf57600080fd5b506103d8610b9c565b6040518080602001828103825283818151815260200191508051906020019060200280838360005b8381101561041b578082015181840152602081019050610400565b505050509050019250505060405180910390f35b34801561043b57600080fd5b506104686004803603602081101561045257600080fd5b8101908080359060200190929190505050610bf4565b6040518082815260200191505060405180910390f35b60026020528060005260406000206000915090508060000160009054906101000a900460ff1690806001018054600181600116156101000203166002900480601f01602080910402602001604051908101604052809291908181526020018280546001816001161561010002031660029004801561053d5780601f106105125761010080835404028352916020019161053d565b820191906000526020600020905b81548152906001019060200180831161052057829003601f168201915b5050505050908060020154905083565b60606000826002600082815260200190815260200160002060000160009054906101000a900460ff1615156105ea576040517f08c379a00000000000000000000000000000000000000000000000000000000081526004018080602001828103825260138152602001807f4974656d20646f6573206e6f742065786973740000000000000000000000000081525060200191505060405180910390fd5b600260008581526020019081526020016000206001016002600086815260200190815260200160002060020154818054600181600116156101000203166002900480601f0160208091040260200160405190810160405280929190818152602001828054600181600116156101000203166002900480156106ac5780601f10610681576101008083540402835291602001916106ac565b820191906000526020600020905b81548152906001019060200180831161068f57829003601f168201915b505050505091509250925050915091565b816002600082815260200190815260200160002060000160009054906101000a900460ff161515610756576040517f08c379a00000000000000000000000000000000000000000000000000000000081526004018080602001828103825260138152602001807f4974656d20646f6573206e6f742065786973740000000000000000000000000081525060200191505060405180910390fd5b8160026000858152602001908152602001600020600201819055507f8587af54375c3313cbb001d3e8461e1d57fef98daae216d7628ff730d05500618383604051808381526020018281526020019250505060405180910390a1505050565b60016020528060005260406000206000915090505481565b6000806107d984610c17565b90506002600082815260200190815260200160002060000160009054906101000a900460ff16151515610874576040517f08c379a00000000000000000000000000000000000000000000000000000000081526004018080602001828103825260148152602001807f4974656d20616c7265616479206578697374732100000000000000000000000081525060200191505060405180910390fd5b606060405190810160405280600115158152602001858152602001848152506002600083815260200190815260200160002060008201518160000160006101000a81548160ff02191690831515021790555060208201518160010190805190602001906108e2929190610c98565b5060408201518160020155905050600081908060018154018082558091505090600182039060005260206000200160009091929091909150555060008054905060016000838152602001908152602001600020819055507f0444434676a57f70f8479401c50fb4add3e31052f88f4b35e155b7759e5968e58185856040518084815260200180602001838152602001828103825284818151815260200191508051906020019080838360005b838110156109a957808201518184015260208101905061098e565b50505050905090810190601f1680156109d65780820380516001836020036101000a031916815260200191505b5094505050505060405180910390a15092915050565b806002600082815260200190815260200160002060000160009054906101000a900460ff161515610a85576040517f08c379a00000000000000000000000000000000000000000000000000000000081526004018080602001828103825260138152602001807f4974656d20646f6573206e6f742065786973740000000000000000000000000081525060200191505060405180910390fd5b60006002600084815260200190815260200160002060000160006101000a81548160ff02191690831515021790555060006001600084815260200190815260200160002054905060016000805490501115610b4a576000600160008054905003815481101515610af157fe5b9060005260206000200154600082815481101515610b0b57fe5b906000526020600020018190555080600160008084815481101515610b2c57fe5b90600052602060002001548152602001908152602001600020819055505b6000805480919060019003610b5f9190610d18565b507fa54eda4149a0fb9258911733973ecf1f6762357ed371fc6d1e63123bbce23bed836040518082815260200191505060405180910390a1505050565b60606000805480602002602001604051908101604052809291908181526020018280548015610bea57602002820191906000526020600020905b815481526020019060010190808311610bd6575b5050505050905090565b600081815481101515610c0357fe5b906000526020600020016000915090505481565b6000816040516020018082805190602001908083835b602083101515610c525780518252602082019150602081019050602083039250610c2d565b6001836020036101000a03801982511681845116808217855250505050505090500191505060405160208183030381529060405280519060200120600190049050919050565b828054600181600116156101000203166002900490600052602060002090601f016020900481019282601f10610cd957805160ff1916838001178555610d07565b82800160010185558215610d07579182015b82811115610d06578251825591602001919060010190610ceb565b5b509050610d149190610d44565b5090565b815481835581811115610d3f57818360005260206000209182019101610d3e9190610d44565b5b505050565b610d6691905b80821115610d62576000816000905550600101610d4a565b5090565b9056fea165627a7a723058206a592896447de2f9d5dc832676121c7b5f8a9c12c26a2d1bc4ad62d1d35de8cd0029",
  "source": "pragma solidity >=0.5.0 <=0.6.0;\n\ncontract GroceryList {\n    struct Item {\n        bool exists;\n        string name;\n        uint256 quantity;\n    }\n\n    event ItemAdded(uint256 _id, string _name, uint256 _quantity);\n    event ItemRemoved(uint256 _id);\n    event ItemQuantityChanged(uint256 _id, uint256 _quantity);\n\n    uint256[] public ids;\n    mapping(uint256 => uint256) public idToIndex;\n    mapping(uint256 => Item) public groceries;\n\n    modifier itemExists(uint256 _id) {\n        require(groceries[_id].exists, \"Item does not exist\");\n        _;\n    }\n\n    function _generateNewId(string memory _str)\n        internal\n        pure\n        returns (uint256)\n    {\n        return uint256(keccak256(abi.encodePacked(_str)));\n    }\n\n    function addItem(string memory _name, uint256 _quantity)\n        public\n        returns (uint256)\n    {\n        uint256 id = _generateNewId(_name);\n        require(!groceries[id].exists, \"Item already exists!\");\n        groceries[id] = Item(true, _name, _quantity);\n        ids.push(id);\n        idToIndex[id] = ids.length;\n        emit ItemAdded(id, _name, _quantity);\n    }\n\n    function getItem(uint256 _id)\n        public\n        view\n        itemExists(_id)\n        returns (string memory, uint256)\n    {\n        return (groceries[_id].name, groceries[_id].quantity);\n    }\n\n    function getAllIds() public view returns (uint256[] memory) {\n        return ids;\n    }\n\n    function removeItem(uint256 _id) public itemExists(_id) {\n        groceries[_id].exists = false;\n        uint256 index = idToIndex[_id];\n        if (ids.length > 1) {\n            ids[index] = ids[ids.length - 1];\n            idToIndex[ids[index]] = index;\n        }\n        ids.length--;\n        emit ItemRemoved(_id);\n    }\n\n    function changeQuantity(uint256 _id, uint256 _quantity)\n        public\n        itemExists(_id)\n    {\n        groceries[_id].quantity = _quantity;\n        emit ItemQuantityChanged(_id, _quantity);\n    }\n}\n",
  "sourcePath": "/Users/matan/dev/portfolio/gl/backend/contracts/ShoppingList.sol",
  "compiler": {
    "name": "solc",
    "version": "0.5.1+commit.c8a2cb62.Emscripten.clang"
  },
  "schemaVersion": "3.0.23",
  "updatedAt": "2020-03-11T13:33:53.652Z",
  "networkType": "ethereum",
  "devdoc": {
    "methods": {}
  },
  "userdoc": {
    "methods": {}
  }
}