{
  "contractName": "GroceryList",
  "abi": [
    {
      "constant": true,
      "inputs": [
        {
          "name": "",
          "type": "uint256"
        }
      ],
      "name": "groceries",
      "outputs": [
        {
          "name": "exists",
          "type": "bool"
        },
        {
          "name": "name",
          "type": "string"
        },
        {
          "name": "quantity",
          "type": "uint256"
        }
      ],
      "payable": false,
      "stateMutability": "view",
      "type": "function"
    },
    {
      "constant": true,
      "inputs": [
        {
          "name": "",
          "type": "uint256"
        }
      ],
      "name": "idToIndex",
      "outputs": [
        {
          "name": "",
          "type": "uint256"
        }
      ],
      "payable": false,
      "stateMutability": "view",
      "type": "function"
    },
    {
      "constant": true,
      "inputs": [
        {
          "name": "",
          "type": "uint256"
        }
      ],
      "name": "ids",
      "outputs": [
        {
          "name": "",
          "type": "uint256"
        }
      ],
      "payable": false,
      "stateMutability": "view",
      "type": "function"
    },
    {
      "constant": false,
      "inputs": [
        {
          "name": "_name",
          "type": "string"
        },
        {
          "name": "_quantity",
          "type": "uint256"
        }
      ],
      "name": "addItem",
      "outputs": [
        {
          "name": "",
          "type": "uint256"
        }
      ],
      "payable": false,
      "stateMutability": "nonpayable",
      "type": "function"
    },
    {
      "constant": true,
      "inputs": [
        {
          "name": "_id",
          "type": "uint256"
        }
      ],
      "name": "getItem",
      "outputs": [
        {
          "name": "",
          "type": "string"
        },
        {
          "name": "",
          "type": "uint256"
        }
      ],
      "payable": false,
      "stateMutability": "view",
      "type": "function"
    },
    {
      "constant": true,
      "inputs": [],
      "name": "getAllIds",
      "outputs": [
        {
          "name": "",
          "type": "uint256[]"
        }
      ],
      "payable": false,
      "stateMutability": "view",
      "type": "function"
    },
    {
      "constant": false,
      "inputs": [
        {
          "name": "_id",
          "type": "uint256"
        }
      ],
      "name": "removeItem",
      "outputs": [],
      "payable": false,
      "stateMutability": "nonpayable",
      "type": "function"
    },
    {
      "constant": false,
      "inputs": [
        {
          "name": "_id",
          "type": "uint256"
        }
      ],
      "name": "incrementItem",
      "outputs": [],
      "payable": false,
      "stateMutability": "nonpayable",
      "type": "function"
    },
    {
      "constant": false,
      "inputs": [
        {
          "name": "_id",
          "type": "uint256"
        }
      ],
      "name": "DecrementItem",
      "outputs": [],
      "payable": false,
      "stateMutability": "nonpayable",
      "type": "function"
    }
  ],
  "bytecode": "0x608060405234801561001057600080fd5b50610b43806100206000396000f3fe608060405260043610610093576000357c010000000000000000000000000000000000000000000000000000000090048063042d192714610098578063130ba11a1461015e5780633129e773146101995780633df6db721461025457806362d6bbdf146102a35780637132917114610389578063aaa44e5c146103c4578063d22fbcd714610430578063fac333ac1461046b575b600080fd5b3480156100a457600080fd5b506100d1600480360360208110156100bb57600080fd5b81019080803590602001909291905050506104ba565b604051808415151515815260200180602001838152602001828103825284818151815260200191508051906020019080838360005b83811015610121578082015181840152602081019050610106565b50505050905090810190601f16801561014e5780820380516001836020036101000a031916815260200191505b5094505050505060405180910390f35b34801561016a57600080fd5b506101976004803603602081101561018157600080fd5b8101908080359060200190929190505050610589565b005b3480156101a557600080fd5b506101d2600480360360208110156101bc57600080fd5b81019080803590602001909291905050506105e4565b6040518080602001838152602001828103825284818151815260200191508051906020019080838360005b838110156102185780820151818401526020810190506101fd565b50505050905090810190601f1680156102455780820380516001836020036101000a031916815260200191505b50935050505060405180910390f35b34801561026057600080fd5b5061028d6004803603602081101561027757600080fd5b81019080803590602001909291905050506106eb565b6040518082815260200191505060405180910390f35b3480156102af57600080fd5b50610373600480360360408110156102c657600080fd5b81019080803590602001906401000000008111156102e357600080fd5b8201836020820111156102f557600080fd5b8035906020019184600183028401116401000000008311171561031757600080fd5b91908080601f016020809104026020016040519081016040528093929190818152602001838380828437600081840152601f19601f82011690508083019250505050505050919291929080359060200190929190505050610703565b6040518082815260200191505060405180910390f35b34801561039557600080fd5b506103c2600480360360208110156103ac57600080fd5b81019080803590602001909291905050506107e0565b005b3480156103d057600080fd5b506103d96108f0565b6040518080602001828103825283818151815260200191508051906020019060200280838360005b8381101561041c578082015181840152602081019050610401565b505050509050019250505060405180910390f35b34801561043c57600080fd5b506104696004803603602081101561045357600080fd5b8101908080359060200190929190505050610948565b005b34801561047757600080fd5b506104a46004803603602081101561048e57600080fd5b81019080803590602001909291905050506109a2565b6040518082815260200191505060405180910390f35b60026020528060005260406000206000915090508060000160009054906101000a900460ff1690806001018054600181600116156101000203166002900480601f0160208091040260200160405190810160405280929190818152602001828054600181600116156101000203166002900480156105795780601f1061054e57610100808354040283529160200191610579565b820191906000526020600020905b81548152906001019060200180831161055c57829003601f168201915b5050505050908060020154905083565b806002600082815260200190815260200160002060000160009054906101000a900460ff1615156105b957600080fd5b6002600083815260200190815260200160002060020160008154809291906001900391905055505050565b60606000826002600082815260200190815260200160002060000160009054906101000a900460ff16151561061857600080fd5b600260008581526020019081526020016000206001016002600086815260200190815260200160002060020154818054600181600116156101000203166002900480601f0160208091040260200160405190810160405280929190818152602001828054600181600116156101000203166002900480156106da5780601f106106af576101008083540402835291602001916106da565b820191906000526020600020905b8154815290600101906020018083116106bd57829003601f168201915b505050505091509250925050915091565b60016020528060005260406000206000915090505481565b60008061070f846109c5565b9050606060405190810160405280600115158152602001858152602001848152506002600083815260200190815260200160002060008201518160000160006101000a81548160ff021916908315150217905550602082015181600101908051906020019061077f929190610a46565b5060408201518160020155905050600081908060018154018082558091505090600182039060005260206000200160009091929091909150555060008054905060016000838152602001908152602001600020819055508091505092915050565b806002600082815260200190815260200160002060000160009054906101000a900460ff16151561081057600080fd5b60006002600084815260200190815260200160002060000160006101000a81548160ff021916908315150217905550600060016000848152602001908152602001600020549050600160008054905011156108d557600060016000805490500381548110151561087c57fe5b906000526020600020015460008281548110151561089657fe5b9060005260206000200181905550806001600080848154811015156108b757fe5b90600052602060002001548152602001908152602001600020819055505b60008054809190600190036108ea9190610ac6565b50505050565b6060600080548060200260200160405190810160405280929190818152602001828054801561093e57602002820191906000526020600020905b81548152602001906001019080831161092a575b5050505050905090565b806002600082815260200190815260200160002060000160009054906101000a900460ff16151561097857600080fd5b60026000838152602001908152602001600020600201600081548092919060010191905055505050565b6000818154811015156109b157fe5b906000526020600020016000915090505481565b6000816040516020018082805190602001908083835b602083101515610a0057805182526020820191506020810190506020830392506109db565b6001836020036101000a03801982511681845116808217855250505050505090500191505060405160208183030381529060405280519060200120600190049050919050565b828054600181600116156101000203166002900490600052602060002090601f016020900481019282601f10610a8757805160ff1916838001178555610ab5565b82800160010185558215610ab5579182015b82811115610ab4578251825591602001919060010190610a99565b5b509050610ac29190610af2565b5090565b815481835581811115610aed57818360005260206000209182019101610aec9190610af2565b5b505050565b610b1491905b80821115610b10576000816000905550600101610af8565b5090565b9056fea165627a7a72305820f1954d2c143194d81733819c53456a19d38b55530550557960e6ffa14a1559750029",
  "source": "pragma solidity >=0.5.0 <=0.6.0;\n\ncontract GroceryList {\n    struct Item {\n        bool exists;\n        string name;\n        uint256 quantity;\n    }\n\n    uint256[] public ids;\n    mapping(uint256 => uint256) public idToIndex;\n    mapping(uint256 => Item) public groceries;\n\n    modifier itemExists(uint256 _id) {\n        require(groceries[_id].exists);\n        _;\n    }\n\n    function _generateNewId(string memory _str)\n        internal\n        pure\n        returns (uint256)\n    {\n        return uint256(keccak256(abi.encodePacked(_str)));\n    }\n\n    function addItem(string memory _name, uint256 _quantity)\n        public\n        returns (uint256)\n    {\n        uint256 id = _generateNewId(_name);\n        groceries[id] = Item(true, _name, _quantity);\n        ids.push(id);\n        idToIndex[id] = ids.length;\n        return id;\n    }\n\n    function getItem(uint256 _id)\n        public\n        view\n        itemExists(_id)\n        returns (string memory, uint256)\n    {\n        return (groceries[_id].name, groceries[_id].quantity);\n    }\n\n    function getAllIds() public view returns (uint256[] memory) {\n        return ids;\n    }\n\n    function removeItem(uint256 _id) public itemExists(_id) {\n        groceries[_id].exists = false;\n        uint256 index = idToIndex[_id];\n        if (ids.length > 1) {\n            ids[index] = ids[ids.length - 1];\n            idToIndex[ids[index]] = index;\n        }\n\n        ids.length--;\n    }\n\n    function incrementItem(uint256 _id) public itemExists(_id) {\n        groceries[_id].quantity++;\n    }\n\n    function DecrementItem(uint256 _id) public itemExists(_id) {\n        groceries[_id].quantity--;\n    }\n}\n",
  "sourcePath": "/Users/matan/dev/portfolio/gl/backend/contracts/ShoppingList.sol",
  "compiler": {
    "name": "solc",
    "version": "0.5.1+commit.c8a2cb62.Emscripten.clang"
  },
  "schemaVersion": "3.0.23",
  "updatedAt": "2020-03-03T17:28:52.139Z",
  "networkType": "ethereum",
  "devdoc": {
    "methods": {}
  },
  "userdoc": {
    "methods": {}
  }
}