{
  "contractName": "GroceryList",
  "abi": [
    {
      "constant": true,
      "inputs": [
        {
          "name": "",
          "type": "uint256"
        }
      ],
      "name": "groceries",
      "outputs": [
        {
          "name": "exists",
          "type": "bool"
        },
        {
          "name": "name",
          "type": "string"
        },
        {
          "name": "quantity",
          "type": "uint256"
        }
      ],
      "payable": false,
      "stateMutability": "view",
      "type": "function"
    },
    {
      "constant": false,
      "inputs": [
        {
          "name": "_name",
          "type": "string"
        },
        {
          "name": "_quantity",
          "type": "uint256"
        }
      ],
      "name": "addItem",
      "outputs": [
        {
          "name": "",
          "type": "uint256"
        }
      ],
      "payable": false,
      "stateMutability": "nonpayable",
      "type": "function"
    },
    {
      "constant": true,
      "inputs": [
        {
          "name": "_id",
          "type": "uint256"
        }
      ],
      "name": "getItem",
      "outputs": [
        {
          "name": "",
          "type": "string"
        },
        {
          "name": "",
          "type": "uint256"
        }
      ],
      "payable": false,
      "stateMutability": "view",
      "type": "function"
    },
    {
      "constant": false,
      "inputs": [
        {
          "name": "_id",
          "type": "uint256"
        }
      ],
      "name": "removeItem",
      "outputs": [],
      "payable": false,
      "stateMutability": "nonpayable",
      "type": "function"
    },
    {
      "constant": false,
      "inputs": [
        {
          "name": "_id",
          "type": "uint256"
        }
      ],
      "name": "incrementItem",
      "outputs": [],
      "payable": false,
      "stateMutability": "nonpayable",
      "type": "function"
    },
    {
      "constant": false,
      "inputs": [
        {
          "name": "_id",
          "type": "uint256"
        }
      ],
      "name": "DecrementItem",
      "outputs": [],
      "payable": false,
      "stateMutability": "nonpayable",
      "type": "function"
    }
  ],
  "bytecode": "0x608060405234801561001057600080fd5b50610859806100206000396000f3fe608060405260043610610072576000357c010000000000000000000000000000000000000000000000000000000090048063042d192714610077578063130ba11a1461013d5780633129e7731461017857806362d6bbdf146102335780637132917114610319578063d22fbcd714610354575b600080fd5b34801561008357600080fd5b506100b06004803603602081101561009a57600080fd5b810190808035906020019092919050505061038f565b604051808415151515815260200180602001838152602001828103825284818151815260200191508051906020019080838360005b838110156101005780820151818401526020810190506100e5565b50505050905090810190601f16801561012d5780820380516001836020036101000a031916815260200191505b5094505050505060405180910390f35b34801561014957600080fd5b506101766004803603602081101561016057600080fd5b810190808035906020019092919050505061045e565b005b34801561018457600080fd5b506101b16004803603602081101561019b57600080fd5b81019080803590602001909291905050506104b7565b6040518080602001838152602001828103825284818151815260200191508051906020019080838360005b838110156101f75780820151818401526020810190506101dc565b50505050905090810190601f1680156102245780820380516001836020036101000a031916815260200191505b50935050505060405180910390f35b34801561023f57600080fd5b506103036004803603604081101561025657600080fd5b810190808035906020019064010000000081111561027357600080fd5b82018360208201111561028557600080fd5b803590602001918460018302840111640100000000831117156102a757600080fd5b91908080601f016020809104026020016040519081016040528093929190818152602001838380828437600081840152601f19601f820116905080830192505050505050509192919290803590602001909291905050506105bb565b6040518082815260200191505060405180910390f35b34801561032557600080fd5b506103526004803603602081101561033c57600080fd5b810190808035906020019092919050505061064e565b005b34801561036057600080fd5b5061038d6004803603602081101561037757600080fd5b81019080803590602001909291905050506106af565b005b60006020528060005260406000206000915090508060000160009054906101000a900460ff1690806001018054600181600116156101000203166002900480601f01602080910402602001604051908101604052809291908181526020018280546001816001161561010002031660029004801561044e5780601f106104235761010080835404028352916020019161044e565b820191906000526020600020905b81548152906001019060200180831161043157829003601f168201915b5050505050908060020154905083565b8060008082815260200190815260200160002060000160009054906101000a900460ff16151561048d57600080fd5b60008083815260200190815260200160002060020160008154809291906001900391905055505050565b606060008260008082815260200190815260200160002060000160009054906101000a900460ff1615156104ea57600080fd5b60008085815260200190815260200160002060010160008086815260200190815260200160002060020154818054600181600116156101000203166002900480601f0160208091040260200160405190810160405280929190818152602001828054600181600116156101000203166002900480156105aa5780601f1061057f576101008083540402835291602001916105aa565b820191906000526020600020905b81548152906001019060200180831161058d57829003601f168201915b505050505091509250925050915091565b6000806105c784610707565b90506060604051908101604052806001151581526020018581526020018481525060008083815260200190815260200160002060008201518160000160006101000a81548160ff0219169083151502179055506020820151816001019080519060200190610636929190610788565b50604082015181600201559050508091505092915050565b8060008082815260200190815260200160002060000160009054906101000a900460ff16151561067d57600080fd5b600080600084815260200190815260200160002060000160006101000a81548160ff0219169083151502179055505050565b8060008082815260200190815260200160002060000160009054906101000a900460ff1615156106de57600080fd5b600080838152602001908152602001600020600201600081548092919060010191905055505050565b6000816040516020018082805190602001908083835b602083101515610742578051825260208201915060208101905060208303925061071d565b6001836020036101000a03801982511681845116808217855250505050505090500191505060405160208183030381529060405280519060200120600190049050919050565b828054600181600116156101000203166002900490600052602060002090601f016020900481019282601f106107c957805160ff19168380011785556107f7565b828001600101855582156107f7579182015b828111156107f65782518255916020019190600101906107db565b5b5090506108049190610808565b5090565b61082a91905b8082111561082657600081600090555060010161080e565b5090565b9056fea165627a7a723058201714740af1174a6af3ed34d1ab1ded87d7fc27905423c7775731800cd108fda80029",
  "source": "pragma solidity >=0.5.0 <=0.6.0;\n\ncontract GroceryList {\n    struct Item {\n        bool exists;\n        string name;\n        uint256 quantity;\n    }\n\n    mapping(uint256 => Item) public groceries;\n\n    modifier itemExists(uint256 _id) {\n        require(groceries[_id].exists);\n        _;\n    }\n\n    function _generateNewId(string memory _str)\n        internal\n        pure\n        returns (uint256)\n    {\n        return uint256(keccak256(abi.encodePacked(_str)));\n    }\n\n    function addItem(string memory _name, uint256 _quantity)\n        public\n        returns (uint256)\n    {\n        uint256 id = _generateNewId(_name);\n        groceries[id] = Item(true, _name, _quantity);\n        return id;\n    }\n\n    function getItem(uint256 _id)\n        public\n        view\n        itemExists(_id)\n        returns (string memory, uint256)\n    {\n        return (groceries[_id].name, groceries[_id].quantity);\n    }\n\n    function removeItem(uint256 _id) public itemExists(_id) {\n        groceries[_id].exists = false;\n    }\n\n    function incrementItem(uint256 _id) public itemExists(_id) {\n        groceries[_id].quantity++;\n    }\n\n    function DecrementItem(uint256 _id) public itemExists(_id) {\n        groceries[_id].quantity--;\n    }\n}\n",
  "sourcePath": "/Users/matan/dev/portfolio/gl/backend/contracts/ShoppingList.sol",
  "compiler": {
    "name": "solc",
    "version": "0.5.1+commit.c8a2cb62.Emscripten.clang"
  },
  "schemaVersion": "3.0.23",
  "updatedAt": "2020-03-03T13:49:12.729Z",
  "networkType": "ethereum",
  "devdoc": {
    "methods": {}
  },
  "userdoc": {
    "methods": {}
  }
}